{
  "_format": "hh-sol-artifact-1",
  "contractName": "Crowdfunding",
  "sourceName": "contracts/Crowdfunding.sol",
  "abi": [
    {
      "inputs": [
        {
          "internalType": "address",
          "name": "rewardTokenAddress",
          "type": "address"
        }
      ],
      "stateMutability": "nonpayable",
      "type": "constructor"
    },
    {
      "anonymous": false,
      "inputs": [
        {
          "indexed": true,
          "internalType": "uint256",
          "name": "id",
          "type": "uint256"
        },
        {
          "indexed": true,
          "internalType": "address",
          "name": "creator",
          "type": "address"
        },
        {
          "indexed": false,
          "internalType": "string",
          "name": "title",
          "type": "string"
        },
        {
          "indexed": false,
          "internalType": "uint256",
          "name": "goalWei",
          "type": "uint256"
        },
        {
          "indexed": false,
          "internalType": "uint256",
          "name": "deadline",
          "type": "uint256"
        }
      ],
      "name": "CampaignCreated",
      "type": "event"
    },
    {
      "anonymous": false,
      "inputs": [
        {
          "indexed": true,
          "internalType": "uint256",
          "name": "id",
          "type": "uint256"
        },
        {
          "indexed": true,
          "internalType": "address",
          "name": "contributor",
          "type": "address"
        },
        {
          "indexed": false,
          "internalType": "uint256",
          "name": "amountWei",
          "type": "uint256"
        },
        {
          "indexed": false,
          "internalType": "uint256",
          "name": "tokensMinted",
          "type": "uint256"
        }
      ],
      "name": "Contributed",
      "type": "event"
    },
    {
      "anonymous": false,
      "inputs": [
        {
          "indexed": true,
          "internalType": "uint256",
          "name": "id",
          "type": "uint256"
        }
      ],
      "name": "Finalized",
      "type": "event"
    },
    {
      "anonymous": false,
      "inputs": [
        {
          "indexed": true,
          "internalType": "uint256",
          "name": "id",
          "type": "uint256"
        },
        {
          "indexed": false,
          "internalType": "address",
          "name": "creator",
          "type": "address"
        },
        {
          "indexed": false,
          "internalType": "uint256",
          "name": "amount",
          "type": "uint256"
        }
      ],
      "name": "FundsWithdrawn",
      "type": "event"
    },
    {
      "inputs": [],
      "name": "TOKENS_PER_ETH",
      "outputs": [
        {
          "internalType": "uint256",
          "name": "",
          "type": "uint256"
        }
      ],
      "stateMutability": "view",
      "type": "function"
    },
    {
      "inputs": [
        {
          "internalType": "uint256",
          "name": "",
          "type": "uint256"
        }
      ],
      "name": "campaigns",
      "outputs": [
        {
          "internalType": "address",
          "name": "creator",
          "type": "address"
        },
        {
          "internalType": "string",
          "name": "title",
          "type": "string"
        },
        {
          "internalType": "string",
          "name": "description",
          "type": "string"
        },
        {
          "internalType": "uint256",
          "name": "goalWei",
          "type": "uint256"
        },
        {
          "internalType": "uint256",
          "name": "deadline",
          "type": "uint256"
        },
        {
          "internalType": "uint256",
          "name": "totalRaisedWei",
          "type": "uint256"
        },
        {
          "internalType": "bool",
          "name": "finalized",
          "type": "bool"
        },
        {
          "internalType": "bool",
          "name": "fundsWithdrawn",
          "type": "bool"
        }
      ],
      "stateMutability": "view",
      "type": "function"
    },
    {
      "inputs": [
        {
          "internalType": "uint256",
          "name": "campaignId",
          "type": "uint256"
        }
      ],
      "name": "contribute",
      "outputs": [],
      "stateMutability": "payable",
      "type": "function"
    },
    {
      "inputs": [
        {
          "internalType": "uint256",
          "name": "",
          "type": "uint256"
        },
        {
          "internalType": "address",
          "name": "",
          "type": "address"
        }
      ],
      "name": "contributions",
      "outputs": [
        {
          "internalType": "uint256",
          "name": "",
          "type": "uint256"
        }
      ],
      "stateMutability": "view",
      "type": "function"
    },
    {
      "inputs": [
        {
          "internalType": "string",
          "name": "title",
          "type": "string"
        },
        {
          "internalType": "string",
          "name": "description",
          "type": "string"
        },
        {
          "internalType": "uint256",
          "name": "goalWei",
          "type": "uint256"
        },
        {
          "internalType": "uint256",
          "name": "durationSeconds",
          "type": "uint256"
        }
      ],
      "name": "createCampaign",
      "outputs": [
        {
          "internalType": "uint256",
          "name": "",
          "type": "uint256"
        }
      ],
      "stateMutability": "nonpayable",
      "type": "function"
    },
    {
      "inputs": [
        {
          "internalType": "uint256",
          "name": "campaignId",
          "type": "uint256"
        }
      ],
      "name": "finalize",
      "outputs": [],
      "stateMutability": "nonpayable",
      "type": "function"
    },
    {
      "inputs": [
        {
          "internalType": "uint256",
          "name": "campaignId",
          "type": "uint256"
        }
      ],
      "name": "isActive",
      "outputs": [
        {
          "internalType": "bool",
          "name": "",
          "type": "bool"
        }
      ],
      "stateMutability": "view",
      "type": "function"
    },
    {
      "inputs": [],
      "name": "nextCampaignId",
      "outputs": [
        {
          "internalType": "uint256",
          "name": "",
          "type": "uint256"
        }
      ],
      "stateMutability": "view",
      "type": "function"
    },
    {
      "inputs": [],
      "name": "rewardToken",
      "outputs": [
        {
          "internalType": "contract IRewardToken",
          "name": "",
          "type": "address"
        }
      ],
      "stateMutability": "view",
      "type": "function"
    },
    {
      "inputs": [
        {
          "internalType": "uint256",
          "name": "campaignId",
          "type": "uint256"
        }
      ],
      "name": "withdraw",
      "outputs": [],
      "stateMutability": "nonpayable",
      "type": "function"
    }
  ],
  "bytecode": "0x60806040523480156200001157600080fd5b5060405162001f8d38038062001f8d8339818101604052810190620000379190620000e8565b806000806101000a81548173ffffffffffffffffffffffffffffffffffffffff021916908373ffffffffffffffffffffffffffffffffffffffff160217905550506200011a565b600080fd5b600073ffffffffffffffffffffffffffffffffffffffff82169050919050565b6000620000b08262000083565b9050919050565b620000c281620000a3565b8114620000ce57600080fd5b50565b600081519050620000e281620000b7565b92915050565b6000602082840312156200010157620001006200007e565b5b60006200011184828501620000d1565b91505092915050565b611e63806200012a6000396000f3fe6080604052600436106100915760003560e01c806382afd23b1161005957806382afd23b14610194578063a318f269146101d1578063bc6e66041461020e578063c1cbbca714610239578063f7c618c11461025557610091565b806305261aea14610096578063141961bc146100bf5780632e1a7d4d146101035780633d891f591461012c5780637903a75614610169575b600080fd5b3480156100a257600080fd5b506100bd60048036038101906100b89190610fd1565b610280565b005b3480156100cb57600080fd5b506100e660048036038101906100e19190610fd1565b610411565b6040516100fa9897969594939291906110f9565b60405180910390f35b34801561010f57600080fd5b5061012a60048036038101906101259190610fd1565b6105a3565b005b34801561013857600080fd5b50610153600480360381019061014e91906111b1565b6108a7565b60405161016091906111f1565b60405180910390f35b34801561017557600080fd5b5061017e6108cc565b60405161018b91906111f1565b60405180910390f35b3480156101a057600080fd5b506101bb60048036038101906101b69190610fd1565b6108d2565b6040516101c8919061120c565b60405180910390f35b3480156101dd57600080fd5b506101f860048036038101906101f3919061128c565b61098d565b60405161020591906111f1565b60405180910390f35b34801561021a57600080fd5b50610223610c6d565b60405161023091906111f1565b60405180910390f35b610253600480360381019061024e9190610fd1565b610c72565b005b34801561026157600080fd5b5061026a610f6d565b6040516102779190611392565b60405180910390f35b6000600260008381526020019081526020016000209050600073ffffffffffffffffffffffffffffffffffffffff168160000160009054906101000a900473ffffffffffffffffffffffffffffffffffffffff1673ffffffffffffffffffffffffffffffffffffffff160361032a576040517f08c379a0000000000000000000000000000000000000000000000000000000008152600401610321906113f9565b60405180910390fd5b8060060160009054906101000a900460ff161561037c576040517f08c379a000000000000000000000000000000000000000000000000000000000815260040161037390611465565b60405180910390fd5b80600401544210156103c3576040517f08c379a00000000000000000000000000000000000000000000000000000000081526004016103ba906114d1565b60405180910390fd5b60018160060160006101000a81548160ff021916908315150217905550817f839cf22e1ba87ce2f5b9bbf46cf0175a09eed52febdfaac8852478e68203c76360405160405180910390a25050565b60026020528060005260406000206000915090508060000160009054906101000a900473ffffffffffffffffffffffffffffffffffffffff169080600101805461045a90611520565b80601f016020809104026020016040519081016040528092919081815260200182805461048690611520565b80156104d35780601f106104a8576101008083540402835291602001916104d3565b820191906000526020600020905b8154815290600101906020018083116104b657829003601f168201915b5050505050908060020180546104e890611520565b80601f016020809104026020016040519081016040528092919081815260200182805461051490611520565b80156105615780601f1061053657610100808354040283529160200191610561565b820191906000526020600020905b81548152906001019060200180831161054457829003601f168201915b5050505050908060030154908060040154908060050154908060060160009054906101000a900460ff16908060060160019054906101000a900460ff16905088565b60006002600083815260200190815260200160002090508060000160009054906101000a900473ffffffffffffffffffffffffffffffffffffffff1673ffffffffffffffffffffffffffffffffffffffff163373ffffffffffffffffffffffffffffffffffffffff161461064c576040517f08c379a00000000000000000000000000000000000000000000000000000000081526004016106439061159d565b60405180910390fd5b8060040154421015610693576040517f08c379a000000000000000000000000000000000000000000000000000000000815260040161068a90611609565b60405180910390fd5b8060030154816005015410156106de576040517f08c379a00000000000000000000000000000000000000000000000000000000081526004016106d590611675565b60405180910390fd5b8060060160019054906101000a900460ff1615610730576040517f08c379a0000000000000000000000000000000000000000000000000000000008152600401610727906116e1565b60405180910390fd5b60008160050154905060018260060160016101000a81548160ff02191690831515021790555060018260060160006101000a81548160ff02191690831515021790555060008260000160009054906101000a900473ffffffffffffffffffffffffffffffffffffffff1673ffffffffffffffffffffffffffffffffffffffff16826040516107bd90611732565b60006040518083038185875af1925050503d80600081146107fa576040519150601f19603f3d011682016040523d82523d6000602084013e6107ff565b606091505b5050905080610843576040517f08c379a000000000000000000000000000000000000000000000000000000000815260040161083a90611793565b60405180910390fd5b837ff440aec6b52895984d061d622e6edeba6210f7c3e059be920663140c084560d78460000160009054906101000a900473ffffffffffffffffffffffffffffffffffffffff16846040516108999291906117b3565b60405180910390a250505050565b6003602052816000526040600020602052806000526040600020600091509150505481565b60015481565b600080600260008481526020019081526020016000209050600073ffffffffffffffffffffffffffffffffffffffff168160000160009054906101000a900473ffffffffffffffffffffffffffffffffffffffff1673ffffffffffffffffffffffffffffffffffffffff160361094c576000915050610988565b8060060160009054906101000a900460ff161561096d576000915050610988565b80600401544210610982576000915050610988565b60019150505b919050565b60008083116109d1576040517f08c379a00000000000000000000000000000000000000000000000000000000081526004016109c890611828565b60405180910390fd5b60008211610a14576040517f08c379a0000000000000000000000000000000000000000000000000000000008152600401610a0b90611894565b60405180910390fd5b6000600154905060016000815480929190610a2e906118e3565b919050555060008342610a41919061192b565b90506040518061010001604052803373ffffffffffffffffffffffffffffffffffffffff1681526020018a8a8080601f016020809104026020016040519081016040528093929190818152602001838380828437600081840152601f19601f82011690508083019250505050505050815260200188888080601f016020809104026020016040519081016040528093929190818152602001838380828437600081840152601f19601f82011690508083019250505050505050815260200186815260200182815260200160008152602001600015158152602001600015158152506002600084815260200190815260200160002060008201518160000160006101000a81548173ffffffffffffffffffffffffffffffffffffffff021916908373ffffffffffffffffffffffffffffffffffffffff1602179055506020820151816001019081610b919190611b30565b506040820151816002019081610ba79190611b30565b50606082015181600301556080820151816004015560a0820151816005015560c08201518160060160006101000a81548160ff02191690831515021790555060e08201518160060160016101000a81548160ff0219169083151502179055509050503373ffffffffffffffffffffffffffffffffffffffff16827fdc26653af5b99b2da33e2ad69ee6600d9aeccc82b034501db4338309615ca2388b8b8986604051610c569493929190611c3e565b60405180910390a381925050509695505050505050565b606481565b6000600260008381526020019081526020016000209050600073ffffffffffffffffffffffffffffffffffffffff168160000160009054906101000a900473ffffffffffffffffffffffffffffffffffffffff1673ffffffffffffffffffffffffffffffffffffffff1603610d1c576040517f08c379a0000000000000000000000000000000000000000000000000000000008152600401610d13906113f9565b60405180910390fd5b80600401544210610d62576040517f08c379a0000000000000000000000000000000000000000000000000000000008152600401610d5990611cca565b60405180910390fd5b8060060160009054906101000a900460ff1615610db4576040517f08c379a0000000000000000000000000000000000000000000000000000000008152600401610dab90611d36565b60405180910390fd5b60003411610df7576040517f08c379a0000000000000000000000000000000000000000000000000000000008152600401610dee90611da2565b60405180910390fd5b346003600084815260200190815260200160002060003373ffffffffffffffffffffffffffffffffffffffff1673ffffffffffffffffffffffffffffffffffffffff1681526020019081526020016000206000828254610e57919061192b565b9250508190555034816005016000828254610e72919061192b565b925050819055506000606434610e889190611dc2565b905060008054906101000a900473ffffffffffffffffffffffffffffffffffffffff1673ffffffffffffffffffffffffffffffffffffffff166340c10f1933836040518363ffffffff1660e01b8152600401610ee59291906117b3565b600060405180830381600087803b158015610eff57600080fd5b505af1158015610f13573d6000803e3d6000fd5b505050503373ffffffffffffffffffffffffffffffffffffffff16837fdcfa71ee125a676f843733d9d39dce2c918ecf9e92f96db4f24bdb5244ed68a03484604051610f60929190611e04565b60405180910390a3505050565b60008054906101000a900473ffffffffffffffffffffffffffffffffffffffff1681565b600080fd5b600080fd5b6000819050919050565b610fae81610f9b565b8114610fb957600080fd5b50565b600081359050610fcb81610fa5565b92915050565b600060208284031215610fe757610fe6610f91565b5b6000610ff584828501610fbc565b91505092915050565b600073ffffffffffffffffffffffffffffffffffffffff82169050919050565b600061102982610ffe565b9050919050565b6110398161101e565b82525050565b600081519050919050565b600082825260208201905092915050565b60005b8381101561107957808201518184015260208101905061105e565b60008484015250505050565b6000601f19601f8301169050919050565b60006110a18261103f565b6110ab818561104a565b93506110bb81856020860161105b565b6110c481611085565b840191505092915050565b6110d881610f9b565b82525050565b60008115159050919050565b6110f3816110de565b82525050565b60006101008201905061110f600083018b611030565b8181036020830152611121818a611096565b905081810360408301526111358189611096565b905061114460608301886110cf565b61115160808301876110cf565b61115e60a08301866110cf565b61116b60c08301856110ea565b61117860e08301846110ea565b9998505050505050505050565b61118e8161101e565b811461119957600080fd5b50565b6000813590506111ab81611185565b92915050565b600080604083850312156111c8576111c7610f91565b5b60006111d685828601610fbc565b92505060206111e78582860161119c565b9150509250929050565b600060208201905061120660008301846110cf565b92915050565b600060208201905061122160008301846110ea565b92915050565b600080fd5b600080fd5b600080fd5b60008083601f84011261124c5761124b611227565b5b8235905067ffffffffffffffff8111156112695761126861122c565b5b60208301915083600182028301111561128557611284611231565b5b9250929050565b600080600080600080608087890312156112a9576112a8610f91565b5b600087013567ffffffffffffffff8111156112c7576112c6610f96565b5b6112d389828a01611236565b9650965050602087013567ffffffffffffffff8111156112f6576112f5610f96565b5b61130289828a01611236565b9450945050604061131589828a01610fbc565b925050606061132689828a01610fbc565b9150509295509295509295565b6000819050919050565b600061135861135361134e84610ffe565b611333565b610ffe565b9050919050565b600061136a8261133d565b9050919050565b600061137c8261135f565b9050919050565b61138c81611371565b82525050565b60006020820190506113a76000830184611383565b92915050565b7f43616d706169676e206e6f7420666f756e640000000000000000000000000000600082015250565b60006113e360128361104a565b91506113ee826113ad565b602082019050919050565b60006020820190508181036000830152611412816113d6565b9050919050565b7f416c72656164792066696e616c697a6564000000000000000000000000000000600082015250565b600061144f60118361104a565b915061145a82611419565b602082019050919050565b6000602082019050818103600083015261147e81611442565b9050919050565b7f546f6f206561726c790000000000000000000000000000000000000000000000600082015250565b60006114bb60098361104a565b91506114c682611485565b602082019050919050565b600060208201905081810360008301526114ea816114ae565b9050919050565b7f4e487b7100000000000000000000000000000000000000000000000000000000600052602260045260246000fd5b6000600282049050600182168061153857607f821691505b60208210810361154b5761154a6114f1565b5b50919050565b7f4f6e6c792063726561746f722063616e20776974686472617700000000000000600082015250565b600061158760198361104a565b915061159282611551565b602082019050919050565b600060208201905081810360008301526115b68161157a565b9050919050565b7f43616d706169676e207374696c6c206163746976650000000000000000000000600082015250565b60006115f360158361104a565b91506115fe826115bd565b602082019050919050565b60006020820190508181036000830152611622816115e6565b9050919050565b7f476f616c206e6f74207265616368656400000000000000000000000000000000600082015250565b600061165f60108361104a565b915061166a82611629565b602082019050919050565b6000602082019050818103600083015261168e81611652565b9050919050565b7f46756e647320616c72656164792077697468647261776e000000000000000000600082015250565b60006116cb60178361104a565b91506116d682611695565b602082019050919050565b600060208201905081810360008301526116fa816116be565b9050919050565b600081905092915050565b50565b600061171c600083611701565b91506117278261170c565b600082019050919050565b600061173d8261170f565b9150819050919050565b7f5472616e73666572206661696c65640000000000000000000000000000000000600082015250565b600061177d600f8361104a565b915061178882611747565b602082019050919050565b600060208201905081810360008301526117ac81611770565b9050919050565b60006040820190506117c86000830185611030565b6117d560208301846110cf565b9392505050565b7f476f616c206d757374206265203e203000000000000000000000000000000000600082015250565b600061181260108361104a565b915061181d826117dc565b602082019050919050565b6000602082019050818103600083015261184181611805565b9050919050565b7f4475726174696f6e206d757374206265203e2030000000000000000000000000600082015250565b600061187e60148361104a565b915061188982611848565b602082019050919050565b600060208201905081810360008301526118ad81611871565b9050919050565b7f4e487b7100000000000000000000000000000000000000000000000000000000600052601160045260246000fd5b60006118ee82610f9b565b91507fffffffffffffffffffffffffffffffffffffffffffffffffffffffffffffffff82036119205761191f6118b4565b5b600182019050919050565b600061193682610f9b565b915061194183610f9b565b9250828201905080821115611959576119586118b4565b5b92915050565b7f4e487b7100000000000000000000000000000000000000000000000000000000600052604160045260246000fd5b60008190508160005260206000209050919050565b60006020601f8301049050919050565b600082821b905092915050565b6000600883026119f07fffffffffffffffffffffffffffffffffffffffffffffffffffffffffffffffff826119b3565b6119fa86836119b3565b95508019841693508086168417925050509392505050565b6000611a2d611a28611a2384610f9b565b611333565b610f9b565b9050919050565b6000819050919050565b611a4783611a12565b611a5b611a5382611a34565b8484546119c0565b825550505050565b600090565b611a70611a63565b611a7b818484611a3e565b505050565b5b81811015611a9f57611a94600082611a68565b600181019050611a81565b5050565b601f821115611ae457611ab58161198e565b611abe846119a3565b81016020851015611acd578190505b611ae1611ad9856119a3565b830182611a80565b50505b505050565b600082821c905092915050565b6000611b0760001984600802611ae9565b1980831691505092915050565b6000611b208383611af6565b9150826002028217905092915050565b611b398261103f565b67ffffffffffffffff811115611b5257611b5161195f565b5b611b5c8254611520565b611b67828285611aa3565b600060209050601f831160018114611b9a5760008415611b88578287015190505b611b928582611b14565b865550611bfa565b601f198416611ba88661198e565b60005b82811015611bd057848901518255600182019150602085019450602081019050611bab565b86831015611bed5784890151611be9601f891682611af6565b8355505b6001600288020188555050505b505050505050565b82818337600083830152505050565b6000611c1d838561104a565b9350611c2a838584611c02565b611c3383611085565b840190509392505050565b60006060820190508181036000830152611c59818688611c11565b9050611c6860208301856110cf565b611c7560408301846110cf565b95945050505050565b7f43616d706169676e20656e646564000000000000000000000000000000000000600082015250565b6000611cb4600e8361104a565b9150611cbf82611c7e565b602082019050919050565b60006020820190508181036000830152611ce381611ca7565b9050919050565b7f46696e616c697a65640000000000000000000000000000000000000000000000600082015250565b6000611d2060098361104a565b9150611d2b82611cea565b602082019050919050565b60006020820190508181036000830152611d4f81611d13565b9050919050565b7f53656e6420455448000000000000000000000000000000000000000000000000600082015250565b6000611d8c60088361104a565b9150611d9782611d56565b602082019050919050565b60006020820190508181036000830152611dbb81611d7f565b9050919050565b6000611dcd82610f9b565b9150611dd883610f9b565b9250828202611de681610f9b565b91508282048414831517611dfd57611dfc6118b4565b5b5092915050565b6000604082019050611e1960008301856110cf565b611e2660208301846110cf565b939250505056fea2646970667358221220352b207efacb1225a9519f2e3ee9c9047221f250456887761cfddedf3d613a7964736f6c63430008140033",
  "linkReferences": {},
  "deployedLinkReferences": {}
}