{
  "_format": "hh-sol-artifact-1",
  "contractName": "HumanitarianCrowdfunding",
  "sourceName": "contracts/Crowdfunding.sol",
  "abi": [
    {
      "inputs": [
        {
          "internalType": "address",
          "name": "rewardTokenAddress",
          "type": "address"
        }
      ],
      "stateMutability": "nonpayable",
      "type": "constructor"
    },
    {
      "anonymous": false,
      "inputs": [
        {
          "indexed": true,
          "internalType": "uint256",
          "name": "id",
          "type": "uint256"
        },
        {
          "indexed": true,
          "internalType": "address",
          "name": "creator",
          "type": "address"
        },
        {
          "indexed": false,
          "internalType": "string",
          "name": "title",
          "type": "string"
        },
        {
          "indexed": false,
          "internalType": "uint256",
          "name": "goalWei",
          "type": "uint256"
        },
        {
          "indexed": false,
          "internalType": "uint256",
          "name": "deadline",
          "type": "uint256"
        }
      ],
      "name": "CampaignCreated",
      "type": "event"
    },
    {
      "anonymous": false,
      "inputs": [
        {
          "indexed": true,
          "internalType": "uint256",
          "name": "id",
          "type": "uint256"
        },
        {
          "indexed": true,
          "internalType": "address",
          "name": "contributor",
          "type": "address"
        },
        {
          "indexed": false,
          "internalType": "uint256",
          "name": "amountWei",
          "type": "uint256"
        },
        {
          "indexed": false,
          "internalType": "uint256",
          "name": "tokensMinted",
          "type": "uint256"
        }
      ],
      "name": "Contributed",
      "type": "event"
    },
    {
      "anonymous": false,
      "inputs": [
        {
          "indexed": true,
          "internalType": "uint256",
          "name": "id",
          "type": "uint256"
        }
      ],
      "name": "Finalized",
      "type": "event"
    },
    {
      "inputs": [],
      "name": "TOKENS_PER_ETH",
      "outputs": [
        {
          "internalType": "uint256",
          "name": "",
          "type": "uint256"
        }
      ],
      "stateMutability": "view",
      "type": "function"
    },
    {
      "inputs": [
        {
          "internalType": "uint256",
          "name": "",
          "type": "uint256"
        }
      ],
      "name": "campaigns",
      "outputs": [
        {
          "internalType": "address",
          "name": "creator",
          "type": "address"
        },
        {
          "internalType": "string",
          "name": "title",
          "type": "string"
        },
        {
          "internalType": "string",
          "name": "description",
          "type": "string"
        },
        {
          "internalType": "uint256",
          "name": "goalWei",
          "type": "uint256"
        },
        {
          "internalType": "uint256",
          "name": "deadline",
          "type": "uint256"
        },
        {
          "internalType": "uint256",
          "name": "totalRaisedWei",
          "type": "uint256"
        },
        {
          "internalType": "bool",
          "name": "finalized",
          "type": "bool"
        }
      ],
      "stateMutability": "view",
      "type": "function"
    },
    {
      "inputs": [
        {
          "internalType": "uint256",
          "name": "campaignId",
          "type": "uint256"
        }
      ],
      "name": "contribute",
      "outputs": [],
      "stateMutability": "payable",
      "type": "function"
    },
    {
      "inputs": [
        {
          "internalType": "uint256",
          "name": "",
          "type": "uint256"
        },
        {
          "internalType": "address",
          "name": "",
          "type": "address"
        }
      ],
      "name": "contributions",
      "outputs": [
        {
          "internalType": "uint256",
          "name": "",
          "type": "uint256"
        }
      ],
      "stateMutability": "view",
      "type": "function"
    },
    {
      "inputs": [
        {
          "internalType": "string",
          "name": "title",
          "type": "string"
        },
        {
          "internalType": "string",
          "name": "description",
          "type": "string"
        },
        {
          "internalType": "uint256",
          "name": "goalWei",
          "type": "uint256"
        },
        {
          "internalType": "uint256",
          "name": "durationSeconds",
          "type": "uint256"
        }
      ],
      "name": "createCampaign",
      "outputs": [
        {
          "internalType": "uint256",
          "name": "",
          "type": "uint256"
        }
      ],
      "stateMutability": "nonpayable",
      "type": "function"
    },
    {
      "inputs": [
        {
          "internalType": "uint256",
          "name": "campaignId",
          "type": "uint256"
        }
      ],
      "name": "finalize",
      "outputs": [],
      "stateMutability": "nonpayable",
      "type": "function"
    },
    {
      "inputs": [
        {
          "internalType": "uint256",
          "name": "campaignId",
          "type": "uint256"
        }
      ],
      "name": "isActive",
      "outputs": [
        {
          "internalType": "bool",
          "name": "",
          "type": "bool"
        }
      ],
      "stateMutability": "view",
      "type": "function"
    },
    {
      "inputs": [],
      "name": "nextCampaignId",
      "outputs": [
        {
          "internalType": "uint256",
          "name": "",
          "type": "uint256"
        }
      ],
      "stateMutability": "view",
      "type": "function"
    },
    {
      "inputs": [],
      "name": "rewardToken",
      "outputs": [
        {
          "internalType": "contract IRewardToken",
          "name": "",
          "type": "address"
        }
      ],
      "stateMutability": "view",
      "type": "function"
    }
  ],
  "bytecode": "0x60806040523480156200001157600080fd5b50604051620019a6380380620019a68339818101604052810190620000379190620000e8565b806000806101000a81548173ffffffffffffffffffffffffffffffffffffffff021916908373ffffffffffffffffffffffffffffffffffffffff160217905550506200011a565b600080fd5b600073ffffffffffffffffffffffffffffffffffffffff82169050919050565b6000620000b08262000083565b9050919050565b620000c281620000a3565b8114620000ce57600080fd5b50565b600081519050620000e281620000b7565b92915050565b6000602082840312156200010157620001006200007e565b5b60006200011184828501620000d1565b91505092915050565b61187c806200012a6000396000f3fe6080604052600436106100865760003560e01c806382afd23b1161005957806382afd23b1461015f578063a318f2691461019c578063bc6e6604146101d9578063c1cbbca714610204578063f7c618c11461022057610086565b806305261aea1461008b578063141961bc146100b45780633d891f59146100f75780637903a75614610134575b600080fd5b34801561009757600080fd5b506100b260048036038101906100ad9190610c5b565b61024b565b005b3480156100c057600080fd5b506100db60048036038101906100d69190610c5b565b6103dc565b6040516100ee9796959493929190610d83565b60405180910390f35b34801561010357600080fd5b5061011e60048036038101906101199190610e2c565b61055b565b60405161012b9190610e6c565b60405180910390f35b34801561014057600080fd5b50610149610580565b6040516101569190610e6c565b60405180910390f35b34801561016b57600080fd5b5061018660048036038101906101819190610c5b565b610586565b6040516101939190610e87565b60405180910390f35b3480156101a857600080fd5b506101c360048036038101906101be9190610f07565b610641565b6040516101d09190610e6c565b60405180910390f35b3480156101e557600080fd5b506101ee6108f7565b6040516101fb9190610e6c565b60405180910390f35b61021e60048036038101906102199190610c5b565b6108fc565b005b34801561022c57600080fd5b50610235610bf7565b604051610242919061100d565b60405180910390f35b6000600260008381526020019081526020016000209050600073ffffffffffffffffffffffffffffffffffffffff168160000160009054906101000a900473ffffffffffffffffffffffffffffffffffffffff1673ffffffffffffffffffffffffffffffffffffffff16036102f5576040517f08c379a00000000000000000000000000000000000000000000000000000000081526004016102ec90611074565b60405180910390fd5b8060060160009054906101000a900460ff1615610347576040517f08c379a000000000000000000000000000000000000000000000000000000000815260040161033e906110e0565b60405180910390fd5b806004015442101561038e576040517f08c379a00000000000000000000000000000000000000000000000000000000081526004016103859061114c565b60405180910390fd5b60018160060160006101000a81548160ff021916908315150217905550817f839cf22e1ba87ce2f5b9bbf46cf0175a09eed52febdfaac8852478e68203c76360405160405180910390a25050565b60026020528060005260406000206000915090508060000160009054906101000a900473ffffffffffffffffffffffffffffffffffffffff16908060010180546104259061119b565b80601f01602080910402602001604051908101604052809291908181526020018280546104519061119b565b801561049e5780601f106104735761010080835404028352916020019161049e565b820191906000526020600020905b81548152906001019060200180831161048157829003601f168201915b5050505050908060020180546104b39061119b565b80601f01602080910402602001604051908101604052809291908181526020018280546104df9061119b565b801561052c5780601f106105015761010080835404028352916020019161052c565b820191906000526020600020905b81548152906001019060200180831161050f57829003601f168201915b5050505050908060030154908060040154908060050154908060060160009054906101000a900460ff16905087565b6003602052816000526040600020602052806000526040600020600091509150505481565b60015481565b600080600260008481526020019081526020016000209050600073ffffffffffffffffffffffffffffffffffffffff168160000160009054906101000a900473ffffffffffffffffffffffffffffffffffffffff1673ffffffffffffffffffffffffffffffffffffffff160361060057600091505061063c565b8060060160009054906101000a900460ff161561062157600091505061063c565b8060040154421061063657600091505061063c565b60019150505b919050565b6000808311610685576040517f08c379a000000000000000000000000000000000000000000000000000000000815260040161067c90611218565b60405180910390fd5b600082116106c8576040517f08c379a00000000000000000000000000000000000000000000000000000000081526004016106bf90611284565b60405180910390fd5b60006001549050600160008154809291906106e2906112d3565b9190505550600083426106f5919061131b565b90506040518060e001604052803373ffffffffffffffffffffffffffffffffffffffff1681526020018a8a8080601f016020809104026020016040519081016040528093929190818152602001838380828437600081840152601f19601f82011690508083019250505050505050815260200188888080601f016020809104026020016040519081016040528093929190818152602001838380828437600081840152601f19601f82011690508083019250505050505050815260200186815260200182815260200160008152602001600015158152506002600084815260200190815260200160002060008201518160000160006101000a81548173ffffffffffffffffffffffffffffffffffffffff021916908373ffffffffffffffffffffffffffffffffffffffff160217905550602082015181600101908161083b9190611520565b5060408201518160020190816108519190611520565b50606082015181600301556080820151816004015560a0820151816005015560c08201518160060160006101000a81548160ff0219169083151502179055509050503373ffffffffffffffffffffffffffffffffffffffff16827fdc26653af5b99b2da33e2ad69ee6600d9aeccc82b034501db4338309615ca2388b8b89866040516108e0949392919061162e565b60405180910390a381925050509695505050505050565b606481565b6000600260008381526020019081526020016000209050600073ffffffffffffffffffffffffffffffffffffffff168160000160009054906101000a900473ffffffffffffffffffffffffffffffffffffffff1673ffffffffffffffffffffffffffffffffffffffff16036109a6576040517f08c379a000000000000000000000000000000000000000000000000000000000815260040161099d90611074565b60405180910390fd5b806004015442106109ec576040517f08c379a00000000000000000000000000000000000000000000000000000000081526004016109e3906116ba565b60405180910390fd5b8060060160009054906101000a900460ff1615610a3e576040517f08c379a0000000000000000000000000000000000000000000000000000000008152600401610a3590611726565b60405180910390fd5b60003411610a81576040517f08c379a0000000000000000000000000000000000000000000000000000000008152600401610a7890611792565b60405180910390fd5b346003600084815260200190815260200160002060003373ffffffffffffffffffffffffffffffffffffffff1673ffffffffffffffffffffffffffffffffffffffff1681526020019081526020016000206000828254610ae1919061131b565b9250508190555034816005016000828254610afc919061131b565b925050819055506000606434610b1291906117b2565b905060008054906101000a900473ffffffffffffffffffffffffffffffffffffffff1673ffffffffffffffffffffffffffffffffffffffff166340c10f1933836040518363ffffffff1660e01b8152600401610b6f9291906117f4565b600060405180830381600087803b158015610b8957600080fd5b505af1158015610b9d573d6000803e3d6000fd5b505050503373ffffffffffffffffffffffffffffffffffffffff16837fdcfa71ee125a676f843733d9d39dce2c918ecf9e92f96db4f24bdb5244ed68a03484604051610bea92919061181d565b60405180910390a3505050565b60008054906101000a900473ffffffffffffffffffffffffffffffffffffffff1681565b600080fd5b600080fd5b6000819050919050565b610c3881610c25565b8114610c4357600080fd5b50565b600081359050610c5581610c2f565b92915050565b600060208284031215610c7157610c70610c1b565b5b6000610c7f84828501610c46565b91505092915050565b600073ffffffffffffffffffffffffffffffffffffffff82169050919050565b6000610cb382610c88565b9050919050565b610cc381610ca8565b82525050565b600081519050919050565b600082825260208201905092915050565b60005b83811015610d03578082015181840152602081019050610ce8565b60008484015250505050565b6000601f19601f8301169050919050565b6000610d2b82610cc9565b610d358185610cd4565b9350610d45818560208601610ce5565b610d4e81610d0f565b840191505092915050565b610d6281610c25565b82525050565b60008115159050919050565b610d7d81610d68565b82525050565b600060e082019050610d98600083018a610cba565b8181036020830152610daa8189610d20565b90508181036040830152610dbe8188610d20565b9050610dcd6060830187610d59565b610dda6080830186610d59565b610de760a0830185610d59565b610df460c0830184610d74565b98975050505050505050565b610e0981610ca8565b8114610e1457600080fd5b50565b600081359050610e2681610e00565b92915050565b60008060408385031215610e4357610e42610c1b565b5b6000610e5185828601610c46565b9250506020610e6285828601610e17565b9150509250929050565b6000602082019050610e816000830184610d59565b92915050565b6000602082019050610e9c6000830184610d74565b92915050565b600080fd5b600080fd5b600080fd5b60008083601f840112610ec757610ec6610ea2565b5b8235905067ffffffffffffffff811115610ee457610ee3610ea7565b5b602083019150836001820283011115610f0057610eff610eac565b5b9250929050565b60008060008060008060808789031215610f2457610f23610c1b565b5b600087013567ffffffffffffffff811115610f4257610f41610c20565b5b610f4e89828a01610eb1565b9650965050602087013567ffffffffffffffff811115610f7157610f70610c20565b5b610f7d89828a01610eb1565b94509450506040610f9089828a01610c46565b9250506060610fa189828a01610c46565b9150509295509295509295565b6000819050919050565b6000610fd3610fce610fc984610c88565b610fae565b610c88565b9050919050565b6000610fe582610fb8565b9050919050565b6000610ff782610fda565b9050919050565b61100781610fec565b82525050565b60006020820190506110226000830184610ffe565b92915050565b7f43616d706169676e206e6f7420666f756e640000000000000000000000000000600082015250565b600061105e601283610cd4565b915061106982611028565b602082019050919050565b6000602082019050818103600083015261108d81611051565b9050919050565b7f416c72656164792066696e616c697a6564000000000000000000000000000000600082015250565b60006110ca601183610cd4565b91506110d582611094565b602082019050919050565b600060208201905081810360008301526110f9816110bd565b9050919050565b7f546f6f206561726c790000000000000000000000000000000000000000000000600082015250565b6000611136600983610cd4565b915061114182611100565b602082019050919050565b6000602082019050818103600083015261116581611129565b9050919050565b7f4e487b7100000000000000000000000000000000000000000000000000000000600052602260045260246000fd5b600060028204905060018216806111b357607f821691505b6020821081036111c6576111c561116c565b5b50919050565b7f476f616c206d757374206265203e203000000000000000000000000000000000600082015250565b6000611202601083610cd4565b915061120d826111cc565b602082019050919050565b60006020820190508181036000830152611231816111f5565b9050919050565b7f4475726174696f6e206d757374206265203e2030000000000000000000000000600082015250565b600061126e601483610cd4565b915061127982611238565b602082019050919050565b6000602082019050818103600083015261129d81611261565b9050919050565b7f4e487b7100000000000000000000000000000000000000000000000000000000600052601160045260246000fd5b60006112de82610c25565b91507fffffffffffffffffffffffffffffffffffffffffffffffffffffffffffffffff82036113105761130f6112a4565b5b600182019050919050565b600061132682610c25565b915061133183610c25565b9250828201905080821115611349576113486112a4565b5b92915050565b7f4e487b7100000000000000000000000000000000000000000000000000000000600052604160045260246000fd5b60008190508160005260206000209050919050565b60006020601f8301049050919050565b600082821b905092915050565b6000600883026113e07fffffffffffffffffffffffffffffffffffffffffffffffffffffffffffffffff826113a3565b6113ea86836113a3565b95508019841693508086168417925050509392505050565b600061141d61141861141384610c25565b610fae565b610c25565b9050919050565b6000819050919050565b61143783611402565b61144b61144382611424565b8484546113b0565b825550505050565b600090565b611460611453565b61146b81848461142e565b505050565b5b8181101561148f57611484600082611458565b600181019050611471565b5050565b601f8211156114d4576114a58161137e565b6114ae84611393565b810160208510156114bd578190505b6114d16114c985611393565b830182611470565b50505b505050565b600082821c905092915050565b60006114f7600019846008026114d9565b1980831691505092915050565b600061151083836114e6565b9150826002028217905092915050565b61152982610cc9565b67ffffffffffffffff8111156115425761154161134f565b5b61154c825461119b565b611557828285611493565b600060209050601f83116001811461158a5760008415611578578287015190505b6115828582611504565b8655506115ea565b601f1984166115988661137e565b60005b828110156115c05784890151825560018201915060208501945060208101905061159b565b868310156115dd57848901516115d9601f8916826114e6565b8355505b6001600288020188555050505b505050505050565b82818337600083830152505050565b600061160d8385610cd4565b935061161a8385846115f2565b61162383610d0f565b840190509392505050565b60006060820190508181036000830152611649818688611601565b90506116586020830185610d59565b6116656040830184610d59565b95945050505050565b7f43616d706169676e20656e646564000000000000000000000000000000000000600082015250565b60006116a4600e83610cd4565b91506116af8261166e565b602082019050919050565b600060208201905081810360008301526116d381611697565b9050919050565b7f46696e616c697a65640000000000000000000000000000000000000000000000600082015250565b6000611710600983610cd4565b915061171b826116da565b602082019050919050565b6000602082019050818103600083015261173f81611703565b9050919050565b7f53656e6420455448000000000000000000000000000000000000000000000000600082015250565b600061177c600883610cd4565b915061178782611746565b602082019050919050565b600060208201905081810360008301526117ab8161176f565b9050919050565b60006117bd82610c25565b91506117c883610c25565b92508282026117d681610c25565b915082820484148315176117ed576117ec6112a4565b5b5092915050565b60006040820190506118096000830185610cba565b6118166020830184610d59565b9392505050565b60006040820190506118326000830185610d59565b61183f6020830184610d59565b939250505056fea2646970667358221220826a224aac1eeb158c800e22933deea2fe72129c8bf830f5da29d94eb32aa97e64736f6c63430008140033",
  "linkReferences": {},
  "deployedLinkReferences": {}
}