{
  "_format": "hh-sol-artifact-1",
  "contractName": "Crowdfunding",
  "sourceName": "contracts/Crowdfunding.sol",
  "abi": [
    {
      "inputs": [
        {
          "internalType": "address",
          "name": "rewardTokenAddress",
          "type": "address"
        }
      ],
      "stateMutability": "nonpayable",
      "type": "constructor"
    },
    {
      "anonymous": false,
      "inputs": [
        {
          "indexed": true,
          "internalType": "uint256",
          "name": "id",
          "type": "uint256"
        },
        {
          "indexed": true,
          "internalType": "address",
          "name": "creator",
          "type": "address"
        },
        {
          "indexed": false,
          "internalType": "string",
          "name": "title",
          "type": "string"
        },
        {
          "indexed": false,
          "internalType": "uint256",
          "name": "goalWei",
          "type": "uint256"
        },
        {
          "indexed": false,
          "internalType": "uint256",
          "name": "deadline",
          "type": "uint256"
        }
      ],
      "name": "CampaignCreated",
      "type": "event"
    },
    {
      "anonymous": false,
      "inputs": [
        {
          "indexed": true,
          "internalType": "uint256",
          "name": "id",
          "type": "uint256"
        },
        {
          "indexed": true,
          "internalType": "address",
          "name": "contributor",
          "type": "address"
        },
        {
          "indexed": false,
          "internalType": "uint256",
          "name": "amountWei",
          "type": "uint256"
        },
        {
          "indexed": false,
          "internalType": "uint256",
          "name": "tokensMinted",
          "type": "uint256"
        }
      ],
      "name": "Contributed",
      "type": "event"
    },
    {
      "anonymous": false,
      "inputs": [
        {
          "indexed": true,
          "internalType": "uint256",
          "name": "id",
          "type": "uint256"
        }
      ],
      "name": "Finalized",
      "type": "event"
    },
    {
      "anonymous": false,
      "inputs": [
        {
          "indexed": true,
          "internalType": "uint256",
          "name": "id",
          "type": "uint256"
        },
        {
          "indexed": false,
          "internalType": "address",
          "name": "creator",
          "type": "address"
        },
        {
          "indexed": false,
          "internalType": "uint256",
          "name": "amount",
          "type": "uint256"
        }
      ],
      "name": "FundsWithdrawn",
      "type": "event"
    },
    {
      "anonymous": false,
      "inputs": [
        {
          "indexed": true,
          "internalType": "uint256",
          "name": "id",
          "type": "uint256"
        },
        {
          "indexed": true,
          "internalType": "address",
          "name": "contributor",
          "type": "address"
        },
        {
          "indexed": false,
          "internalType": "uint256",
          "name": "amount",
          "type": "uint256"
        }
      ],
      "name": "Refunded",
      "type": "event"
    },
    {
      "inputs": [],
      "name": "TOKENS_PER_ETH",
      "outputs": [
        {
          "internalType": "uint256",
          "name": "",
          "type": "uint256"
        }
      ],
      "stateMutability": "view",
      "type": "function"
    },
    {
      "inputs": [
        {
          "internalType": "uint256",
          "name": "",
          "type": "uint256"
        }
      ],
      "name": "campaigns",
      "outputs": [
        {
          "internalType": "address",
          "name": "creator",
          "type": "address"
        },
        {
          "internalType": "string",
          "name": "title",
          "type": "string"
        },
        {
          "internalType": "string",
          "name": "description",
          "type": "string"
        },
        {
          "internalType": "uint256",
          "name": "goalWei",
          "type": "uint256"
        },
        {
          "internalType": "uint256",
          "name": "deadline",
          "type": "uint256"
        },
        {
          "internalType": "uint256",
          "name": "totalRaisedWei",
          "type": "uint256"
        },
        {
          "internalType": "bool",
          "name": "finalized",
          "type": "bool"
        },
        {
          "internalType": "bool",
          "name": "fundsWithdrawn",
          "type": "bool"
        }
      ],
      "stateMutability": "view",
      "type": "function"
    },
    {
      "inputs": [
        {
          "internalType": "uint256",
          "name": "campaignId",
          "type": "uint256"
        }
      ],
      "name": "contribute",
      "outputs": [],
      "stateMutability": "payable",
      "type": "function"
    },
    {
      "inputs": [
        {
          "internalType": "uint256",
          "name": "",
          "type": "uint256"
        },
        {
          "internalType": "address",
          "name": "",
          "type": "address"
        }
      ],
      "name": "contributions",
      "outputs": [
        {
          "internalType": "uint256",
          "name": "",
          "type": "uint256"
        }
      ],
      "stateMutability": "view",
      "type": "function"
    },
    {
      "inputs": [
        {
          "internalType": "string",
          "name": "title",
          "type": "string"
        },
        {
          "internalType": "string",
          "name": "description",
          "type": "string"
        },
        {
          "internalType": "uint256",
          "name": "goalWei",
          "type": "uint256"
        },
        {
          "internalType": "uint256",
          "name": "durationSeconds",
          "type": "uint256"
        }
      ],
      "name": "createCampaign",
      "outputs": [
        {
          "internalType": "uint256",
          "name": "",
          "type": "uint256"
        }
      ],
      "stateMutability": "nonpayable",
      "type": "function"
    },
    {
      "inputs": [
        {
          "internalType": "uint256",
          "name": "campaignId",
          "type": "uint256"
        }
      ],
      "name": "finalize",
      "outputs": [],
      "stateMutability": "nonpayable",
      "type": "function"
    },
    {
      "inputs": [
        {
          "internalType": "uint256",
          "name": "campaignId",
          "type": "uint256"
        }
      ],
      "name": "isActive",
      "outputs": [
        {
          "internalType": "bool",
          "name": "",
          "type": "bool"
        }
      ],
      "stateMutability": "view",
      "type": "function"
    },
    {
      "inputs": [],
      "name": "nextCampaignId",
      "outputs": [
        {
          "internalType": "uint256",
          "name": "",
          "type": "uint256"
        }
      ],
      "stateMutability": "view",
      "type": "function"
    },
    {
      "inputs": [
        {
          "internalType": "uint256",
          "name": "campaignId",
          "type": "uint256"
        }
      ],
      "name": "refund",
      "outputs": [],
      "stateMutability": "nonpayable",
      "type": "function"
    },
    {
      "inputs": [],
      "name": "rewardToken",
      "outputs": [
        {
          "internalType": "contract IRewardToken",
          "name": "",
          "type": "address"
        }
      ],
      "stateMutability": "view",
      "type": "function"
    },
    {
      "inputs": [
        {
          "internalType": "uint256",
          "name": "campaignId",
          "type": "uint256"
        }
      ],
      "name": "withdraw",
      "outputs": [],
      "stateMutability": "nonpayable",
      "type": "function"
    }
  ],
  "bytecode": "0x60806040523480156200001157600080fd5b5060405162002330380380620023308339818101604052810190620000379190620000e8565b806000806101000a81548173ffffffffffffffffffffffffffffffffffffffff021916908373ffffffffffffffffffffffffffffffffffffffff160217905550506200011a565b600080fd5b600073ffffffffffffffffffffffffffffffffffffffff82169050919050565b6000620000b08262000083565b9050919050565b620000c281620000a3565b8114620000ce57600080fd5b50565b600081519050620000e281620000b7565b92915050565b6000602082840312156200010157620001006200007e565b5b60006200011184828501620000d1565b91505092915050565b612206806200012a6000396000f3fe60806040526004361061009c5760003560e01c80637903a756116100645780637903a7561461019d57806382afd23b146101c8578063a318f26914610205578063bc6e660414610242578063c1cbbca71461026d578063f7c618c1146102895761009c565b806305261aea146100a1578063141961bc146100ca578063278ecde11461010e5780632e1a7d4d146101375780633d891f5914610160575b600080fd5b3480156100ad57600080fd5b506100c860048036038101906100c3919061129c565b6102b4565b005b3480156100d657600080fd5b506100f160048036038101906100ec919061129c565b610445565b6040516101059897969594939291906113c4565b60405180910390f35b34801561011a57600080fd5b506101356004803603810190610130919061129c565b6105d7565b005b34801561014357600080fd5b5061015e6004803603810190610159919061129c565b61086e565b005b34801561016c57600080fd5b506101876004803603810190610182919061147c565b610b72565b60405161019491906114bc565b60405180910390f35b3480156101a957600080fd5b506101b2610b97565b6040516101bf91906114bc565b60405180910390f35b3480156101d457600080fd5b506101ef60048036038101906101ea919061129c565b610b9d565b6040516101fc91906114d7565b60405180910390f35b34801561021157600080fd5b5061022c60048036038101906102279190611557565b610c58565b60405161023991906114bc565b60405180910390f35b34801561024e57600080fd5b50610257610f38565b60405161026491906114bc565b60405180910390f35b6102876004803603810190610282919061129c565b610f3d565b005b34801561029557600080fd5b5061029e611238565b6040516102ab919061165d565b60405180910390f35b6000600260008381526020019081526020016000209050600073ffffffffffffffffffffffffffffffffffffffff168160000160009054906101000a900473ffffffffffffffffffffffffffffffffffffffff1673ffffffffffffffffffffffffffffffffffffffff160361035e576040517f08c379a0000000000000000000000000000000000000000000000000000000008152600401610355906116c4565b60405180910390fd5b8060060160009054906101000a900460ff16156103b0576040517f08c379a00000000000000000000000000000000000000000000000000000000081526004016103a790611730565b60405180910390fd5b80600401544210156103f7576040517f08c379a00000000000000000000000000000000000000000000000000000000081526004016103ee9061179c565b60405180910390fd5b60018160060160006101000a81548160ff021916908315150217905550817f839cf22e1ba87ce2f5b9bbf46cf0175a09eed52febdfaac8852478e68203c76360405160405180910390a25050565b60026020528060005260406000206000915090508060000160009054906101000a900473ffffffffffffffffffffffffffffffffffffffff169080600101805461048e906117eb565b80601f01602080910402602001604051908101604052809291908181526020018280546104ba906117eb565b80156105075780601f106104dc57610100808354040283529160200191610507565b820191906000526020600020905b8154815290600101906020018083116104ea57829003601f168201915b50505050509080600201805461051c906117eb565b80601f0160208091040260200160405190810160405280929190818152602001828054610548906117eb565b80156105955780601f1061056a57610100808354040283529160200191610595565b820191906000526020600020905b81548152906001019060200180831161057857829003601f168201915b5050505050908060030154908060040154908060050154908060060160009054906101000a900460ff16908060060160019054906101000a900460ff16905088565b60006002600083815260200190815260200160002090508060040154421015610635576040517f08c379a000000000000000000000000000000000000000000000000000000000815260040161062c90611868565b60405180910390fd5b806003015481600501541061067f576040517f08c379a0000000000000000000000000000000000000000000000000000000008152600401610676906118d4565b60405180910390fd5b60006003600084815260200190815260200160002060003373ffffffffffffffffffffffffffffffffffffffff1673ffffffffffffffffffffffffffffffffffffffff16815260200190815260200160002054905060008111610717576040517f08c379a000000000000000000000000000000000000000000000000000000000815260040161070e90611940565b60405180910390fd5b60006003600085815260200190815260200160002060003373ffffffffffffffffffffffffffffffffffffffff1673ffffffffffffffffffffffffffffffffffffffff1681526020019081526020016000208190555060003373ffffffffffffffffffffffffffffffffffffffff168260405161079390611991565b60006040518083038185875af1925050503d80600081146107d0576040519150601f19603f3d011682016040523d82523d6000602084013e6107d5565b606091505b5050905080610819576040517f08c379a0000000000000000000000000000000000000000000000000000000008152600401610810906119f2565b60405180910390fd5b3373ffffffffffffffffffffffffffffffffffffffff16847f7ca5472b7ea78c2c0141c5a12ee6d170cf4ce8ed06be3d22c8252ddfc7a6a2c48460405161086091906114bc565b60405180910390a350505050565b60006002600083815260200190815260200160002090508060000160009054906101000a900473ffffffffffffffffffffffffffffffffffffffff1673ffffffffffffffffffffffffffffffffffffffff163373ffffffffffffffffffffffffffffffffffffffff1614610917576040517f08c379a000000000000000000000000000000000000000000000000000000000815260040161090e90611a5e565b60405180910390fd5b806004015442101561095e576040517f08c379a000000000000000000000000000000000000000000000000000000000815260040161095590611868565b60405180910390fd5b8060030154816005015410156109a9576040517f08c379a00000000000000000000000000000000000000000000000000000000081526004016109a090611aca565b60405180910390fd5b8060060160019054906101000a900460ff16156109fb576040517f08c379a00000000000000000000000000000000000000000000000000000000081526004016109f290611b36565b60405180910390fd5b60008160050154905060018260060160016101000a81548160ff02191690831515021790555060018260060160006101000a81548160ff02191690831515021790555060008260000160009054906101000a900473ffffffffffffffffffffffffffffffffffffffff1673ffffffffffffffffffffffffffffffffffffffff1682604051610a8890611991565b60006040518083038185875af1925050503d8060008114610ac5576040519150601f19603f3d011682016040523d82523d6000602084013e610aca565b606091505b5050905080610b0e576040517f08c379a0000000000000000000000000000000000000000000000000000000008152600401610b05906119f2565b60405180910390fd5b837ff440aec6b52895984d061d622e6edeba6210f7c3e059be920663140c084560d78460000160009054906101000a900473ffffffffffffffffffffffffffffffffffffffff1684604051610b64929190611b56565b60405180910390a250505050565b6003602052816000526040600020602052806000526040600020600091509150505481565b60015481565b600080600260008481526020019081526020016000209050600073ffffffffffffffffffffffffffffffffffffffff168160000160009054906101000a900473ffffffffffffffffffffffffffffffffffffffff1673ffffffffffffffffffffffffffffffffffffffff1603610c17576000915050610c53565b8060060160009054906101000a900460ff1615610c38576000915050610c53565b80600401544210610c4d576000915050610c53565b60019150505b919050565b6000808311610c9c576040517f08c379a0000000000000000000000000000000000000000000000000000000008152600401610c9390611bcb565b60405180910390fd5b60008211610cdf576040517f08c379a0000000000000000000000000000000000000000000000000000000008152600401610cd690611c37565b60405180910390fd5b6000600154905060016000815480929190610cf990611c86565b919050555060008342610d0c9190611cce565b90506040518061010001604052803373ffffffffffffffffffffffffffffffffffffffff1681526020018a8a8080601f016020809104026020016040519081016040528093929190818152602001838380828437600081840152601f19601f82011690508083019250505050505050815260200188888080601f016020809104026020016040519081016040528093929190818152602001838380828437600081840152601f19601f82011690508083019250505050505050815260200186815260200182815260200160008152602001600015158152602001600015158152506002600084815260200190815260200160002060008201518160000160006101000a81548173ffffffffffffffffffffffffffffffffffffffff021916908373ffffffffffffffffffffffffffffffffffffffff1602179055506020820151816001019081610e5c9190611ed3565b506040820151816002019081610e729190611ed3565b50606082015181600301556080820151816004015560a0820151816005015560c08201518160060160006101000a81548160ff02191690831515021790555060e08201518160060160016101000a81548160ff0219169083151502179055509050503373ffffffffffffffffffffffffffffffffffffffff16827fdc26653af5b99b2da33e2ad69ee6600d9aeccc82b034501db4338309615ca2388b8b8986604051610f219493929190611fe1565b60405180910390a381925050509695505050505050565b606481565b6000600260008381526020019081526020016000209050600073ffffffffffffffffffffffffffffffffffffffff168160000160009054906101000a900473ffffffffffffffffffffffffffffffffffffffff1673ffffffffffffffffffffffffffffffffffffffff1603610fe7576040517f08c379a0000000000000000000000000000000000000000000000000000000008152600401610fde906116c4565b60405180910390fd5b8060040154421061102d576040517f08c379a00000000000000000000000000000000000000000000000000000000081526004016110249061206d565b60405180910390fd5b8060060160009054906101000a900460ff161561107f576040517f08c379a0000000000000000000000000000000000000000000000000000000008152600401611076906120d9565b60405180910390fd5b600034116110c2576040517f08c379a00000000000000000000000000000000000000000000000000000000081526004016110b990612145565b60405180910390fd5b346003600084815260200190815260200160002060003373ffffffffffffffffffffffffffffffffffffffff1673ffffffffffffffffffffffffffffffffffffffff16815260200190815260200160002060008282546111229190611cce565b925050819055503481600501600082825461113d9190611cce565b9250508190555060006064346111539190612165565b905060008054906101000a900473ffffffffffffffffffffffffffffffffffffffff1673ffffffffffffffffffffffffffffffffffffffff166340c10f1933836040518363ffffffff1660e01b81526004016111b0929190611b56565b600060405180830381600087803b1580156111ca57600080fd5b505af11580156111de573d6000803e3d6000fd5b505050503373ffffffffffffffffffffffffffffffffffffffff16837fdcfa71ee125a676f843733d9d39dce2c918ecf9e92f96db4f24bdb5244ed68a0348460405161122b9291906121a7565b60405180910390a3505050565b60008054906101000a900473ffffffffffffffffffffffffffffffffffffffff1681565b600080fd5b600080fd5b6000819050919050565b61127981611266565b811461128457600080fd5b50565b60008135905061129681611270565b92915050565b6000602082840312156112b2576112b161125c565b5b60006112c084828501611287565b91505092915050565b600073ffffffffffffffffffffffffffffffffffffffff82169050919050565b60006112f4826112c9565b9050919050565b611304816112e9565b82525050565b600081519050919050565b600082825260208201905092915050565b60005b83811015611344578082015181840152602081019050611329565b60008484015250505050565b6000601f19601f8301169050919050565b600061136c8261130a565b6113768185611315565b9350611386818560208601611326565b61138f81611350565b840191505092915050565b6113a381611266565b82525050565b60008115159050919050565b6113be816113a9565b82525050565b6000610100820190506113da600083018b6112fb565b81810360208301526113ec818a611361565b905081810360408301526114008189611361565b905061140f606083018861139a565b61141c608083018761139a565b61142960a083018661139a565b61143660c08301856113b5565b61144360e08301846113b5565b9998505050505050505050565b611459816112e9565b811461146457600080fd5b50565b60008135905061147681611450565b92915050565b600080604083850312156114935761149261125c565b5b60006114a185828601611287565b92505060206114b285828601611467565b9150509250929050565b60006020820190506114d1600083018461139a565b92915050565b60006020820190506114ec60008301846113b5565b92915050565b600080fd5b600080fd5b600080fd5b60008083601f840112611517576115166114f2565b5b8235905067ffffffffffffffff811115611534576115336114f7565b5b6020830191508360018202830111156115505761154f6114fc565b5b9250929050565b600080600080600080608087890312156115745761157361125c565b5b600087013567ffffffffffffffff81111561159257611591611261565b5b61159e89828a01611501565b9650965050602087013567ffffffffffffffff8111156115c1576115c0611261565b5b6115cd89828a01611501565b945094505060406115e089828a01611287565b92505060606115f189828a01611287565b9150509295509295509295565b6000819050919050565b600061162361161e611619846112c9565b6115fe565b6112c9565b9050919050565b600061163582611608565b9050919050565b60006116478261162a565b9050919050565b6116578161163c565b82525050565b6000602082019050611672600083018461164e565b92915050565b7f43616d706169676e206e6f7420666f756e640000000000000000000000000000600082015250565b60006116ae601283611315565b91506116b982611678565b602082019050919050565b600060208201905081810360008301526116dd816116a1565b9050919050565b7f416c72656164792066696e616c697a6564000000000000000000000000000000600082015250565b600061171a601183611315565b9150611725826116e4565b602082019050919050565b600060208201905081810360008301526117498161170d565b9050919050565b7f546f6f206561726c790000000000000000000000000000000000000000000000600082015250565b6000611786600983611315565b915061179182611750565b602082019050919050565b600060208201905081810360008301526117b581611779565b9050919050565b7f4e487b7100000000000000000000000000000000000000000000000000000000600052602260045260246000fd5b6000600282049050600182168061180357607f821691505b602082108103611816576118156117bc565b5b50919050565b7f43616d706169676e207374696c6c206163746976650000000000000000000000600082015250565b6000611852601583611315565b915061185d8261181c565b602082019050919050565b6000602082019050818103600083015261188181611845565b9050919050565b7f476f616c20726561636865640000000000000000000000000000000000000000600082015250565b60006118be600c83611315565b91506118c982611888565b602082019050919050565b600060208201905081810360008301526118ed816118b1565b9050919050565b7f4e6f20636f6e747269627574696f6e0000000000000000000000000000000000600082015250565b600061192a600f83611315565b9150611935826118f4565b602082019050919050565b600060208201905081810360008301526119598161191d565b9050919050565b600081905092915050565b50565b600061197b600083611960565b91506119868261196b565b600082019050919050565b600061199c8261196e565b9150819050919050565b7f5472616e73666572206661696c65640000000000000000000000000000000000600082015250565b60006119dc600f83611315565b91506119e7826119a6565b602082019050919050565b60006020820190508181036000830152611a0b816119cf565b9050919050565b7f4f6e6c792063726561746f722063616e20776974686472617700000000000000600082015250565b6000611a48601983611315565b9150611a5382611a12565b602082019050919050565b60006020820190508181036000830152611a7781611a3b565b9050919050565b7f476f616c206e6f74207265616368656400000000000000000000000000000000600082015250565b6000611ab4601083611315565b9150611abf82611a7e565b602082019050919050565b60006020820190508181036000830152611ae381611aa7565b9050919050565b7f46756e647320616c72656164792077697468647261776e000000000000000000600082015250565b6000611b20601783611315565b9150611b2b82611aea565b602082019050919050565b60006020820190508181036000830152611b4f81611b13565b9050919050565b6000604082019050611b6b60008301856112fb565b611b78602083018461139a565b9392505050565b7f476f616c206d757374206265203e203000000000000000000000000000000000600082015250565b6000611bb5601083611315565b9150611bc082611b7f565b602082019050919050565b60006020820190508181036000830152611be481611ba8565b9050919050565b7f4475726174696f6e206d757374206265203e2030000000000000000000000000600082015250565b6000611c21601483611315565b9150611c2c82611beb565b602082019050919050565b60006020820190508181036000830152611c5081611c14565b9050919050565b7f4e487b7100000000000000000000000000000000000000000000000000000000600052601160045260246000fd5b6000611c9182611266565b91507fffffffffffffffffffffffffffffffffffffffffffffffffffffffffffffffff8203611cc357611cc2611c57565b5b600182019050919050565b6000611cd982611266565b9150611ce483611266565b9250828201905080821115611cfc57611cfb611c57565b5b92915050565b7f4e487b7100000000000000000000000000000000000000000000000000000000600052604160045260246000fd5b60008190508160005260206000209050919050565b60006020601f8301049050919050565b600082821b905092915050565b600060088302611d937fffffffffffffffffffffffffffffffffffffffffffffffffffffffffffffffff82611d56565b611d9d8683611d56565b95508019841693508086168417925050509392505050565b6000611dd0611dcb611dc684611266565b6115fe565b611266565b9050919050565b6000819050919050565b611dea83611db5565b611dfe611df682611dd7565b848454611d63565b825550505050565b600090565b611e13611e06565b611e1e818484611de1565b505050565b5b81811015611e4257611e37600082611e0b565b600181019050611e24565b5050565b601f821115611e8757611e5881611d31565b611e6184611d46565b81016020851015611e70578190505b611e84611e7c85611d46565b830182611e23565b50505b505050565b600082821c905092915050565b6000611eaa60001984600802611e8c565b1980831691505092915050565b6000611ec38383611e99565b9150826002028217905092915050565b611edc8261130a565b67ffffffffffffffff811115611ef557611ef4611d02565b5b611eff82546117eb565b611f0a828285611e46565b600060209050601f831160018114611f3d5760008415611f2b578287015190505b611f358582611eb7565b865550611f9d565b601f198416611f4b86611d31565b60005b82811015611f7357848901518255600182019150602085019450602081019050611f4e565b86831015611f905784890151611f8c601f891682611e99565b8355505b6001600288020188555050505b505050505050565b82818337600083830152505050565b6000611fc08385611315565b9350611fcd838584611fa5565b611fd683611350565b840190509392505050565b60006060820190508181036000830152611ffc818688611fb4565b905061200b602083018561139a565b612018604083018461139a565b95945050505050565b7f43616d706169676e20656e646564000000000000000000000000000000000000600082015250565b6000612057600e83611315565b915061206282612021565b602082019050919050565b600060208201905081810360008301526120868161204a565b9050919050565b7f46696e616c697a65640000000000000000000000000000000000000000000000600082015250565b60006120c3600983611315565b91506120ce8261208d565b602082019050919050565b600060208201905081810360008301526120f2816120b6565b9050919050565b7f53656e6420455448000000000000000000000000000000000000000000000000600082015250565b600061212f600883611315565b915061213a826120f9565b602082019050919050565b6000602082019050818103600083015261215e81612122565b9050919050565b600061217082611266565b915061217b83611266565b925082820261218981611266565b915082820484148315176121a05761219f611c57565b5b5092915050565b60006040820190506121bc600083018561139a565b6121c9602083018461139a565b939250505056fea264697066735822122065fc6b4195b95166876e441d6e365867554d02463a6388f535a7201b5dab36cb64736f6c63430008140033",
  "linkReferences": {},
  "deployedLinkReferences": {}
}